{
  "contractName": "HashStore",
  "abi": [
    {
      "inputs": [],
      "stateMutability": "nonpayable",
      "type": "constructor"
    },
    {
      "inputs": [
        {
          "internalType": "string",
          "name": "hash",
          "type": "string"
        }
      ],
      "name": "storeHash",
      "outputs": [],
      "stateMutability": "nonpayable",
      "type": "function"
    },
    {
      "inputs": [
        {
          "internalType": "uint256",
          "name": "id",
          "type": "uint256"
        }
      ],
      "name": "getHash",
      "outputs": [
        {
          "internalType": "string",
          "name": "",
          "type": "string"
        }
      ],
      "stateMutability": "view",
      "type": "function",
      "constant": true
    },
    {
      "inputs": [],
      "name": "getCurrentId",
      "outputs": [
        {
          "internalType": "uint256",
          "name": "",
          "type": "uint256"
        }
      ],
      "stateMutability": "view",
      "type": "function",
      "constant": true
    }
  ],
  "bytecode": "0x60806040526001805534801561001457600080fd5b50600280546001600160a01b031916331790556104a4806100366000396000f3fe608060405234801561001057600080fd5b50600436106100415760003560e01c80636b2fafa9146100465780636c1438621461006f57806371dc61cb14610084575b600080fd5b610059610054366004610312565b610099565b604051610066919061032a565b60405180910390f35b61007761016f565b60405161006691906103ed565b610097610092366004610271565b610175565b005b60606000821180156100ac575060015482105b6100d15760405162461bcd60e51b81526004016100c8906103c3565b60405180910390fd5b600082815260208190526040902080546100ea906103f6565b80601f0160208091040260200160405190810160405280929190818152602001828054610116906103f6565b80156101635780601f1061013857610100808354040283529160200191610163565b820191906000526020600020905b81548152906001019060200180831161014657829003601f168201915b50505050509050919050565b60015490565b6002546001600160a01b0316331461019f5760405162461bcd60e51b81526004016100c89061037d565b60015460009081526020818152604090912082516101bf928401906101d8565b50600180549060006101d083610431565b919050555050565b8280546101e4906103f6565b90600052602060002090601f016020900481019282610206576000855561024c565b82601f1061021f57805160ff191683800117855561024c565b8280016001018555821561024c579182015b8281111561024c578251825591602001919060010190610231565b5061025892915061025c565b5090565b5b80821115610258576000815560010161025d565b60006020808385031215610283578182fd5b823567ffffffffffffffff8082111561029a578384fd5b818501915085601f8301126102ad578384fd5b8135818111156102bf576102bf610458565b604051601f8201601f19168101850183811182821017156102e2576102e2610458565b60405281815283820185018810156102f8578586fd5b818585018683013790810190930193909352509392505050565b600060208284031215610323578081fd5b5035919050565b6000602080835283518082850152825b818110156103565785810183015185820160400152820161033a565b818111156103675783604083870101525b50601f01601f1916929092016040019392505050565b60208082526026908201527f4f6e6c7920746865206f776e65722063616e20706572666f726d20746869732060408201526530b1ba34b7b760d11b606082015260800190565b60208082526010908201526f4944206f7574206f6620626f756e647360801b604082015260600190565b90815260200190565b60028104600182168061040a57607f821691505b6020821081141561042b57634e487b7160e01b600052602260045260246000fd5b50919050565b600060001982141561045157634e487b7160e01b81526011600452602481fd5b5060010190565b634e487b7160e01b600052604160045260246000fdfea26469706673582212202b4238dd674ca8b0a92c370435cbf0f391bb74d08a01609a687e6caa94df3b9e64736f6c63430008000033",
  "immutableReferences": {},
  "source": "// SPDX-License-Identifier: MIT\npragma solidity ^0.8.0;\n\ncontract HashStore {\n    mapping(uint => string) private hashes;\n    uint private nextId = 1;\n    address private owner;\n\n    constructor() {\n        owner = msg.sender; // Set the contract deployer as the owner\n    }\n\n    modifier onlyOwner() {\n        require(msg.sender == owner, \"Only the owner can perform this action\");\n        _;\n    }\n\n    function storeHash(string memory hash) public onlyOwner {\n        hashes[nextId] = hash;\n        nextId++;\n    }\n\n    function getHash(uint id) public view returns (string memory) {\n        require(id > 0 && id < nextId, \"ID out of bounds\");\n        return hashes[id];\n    }\n\n    function getCurrentId() public view returns (uint) {\n        return nextId;\n    }\n}\n",
  "sourcePath": "/Users/dev/Desktop/HashAI/contracts/HashStore.sol",
  "compiler": {
    "name": "solc",
    "version": "0.8.0+commit.c7dfd78e.Emscripten.clang"
  },
  "schemaVersion": "3.4.16",
  "updatedAt": "2024-03-27T00:35:39.469Z",
  "networkType": "ethereum",
  "devdoc": {
    "kind": "dev",
    "methods": {},
    "version": 1
  },
  "userdoc": {
    "kind": "user",
    "methods": {},
    "version": 1
  }
}